{
  "_format": "hh-sol-artifact-1",
  "contractName": "CryptoDevs",
  "sourceName": "contracts/CryptoDevs.sol",
  "abi": [
    {
      "inputs": [
        {
          "internalType": "string",
          "name": "baseURI",
          "type": "string"
        },
        {
          "internalType": "address",
          "name": "whitelistContract",
          "type": "address"
        }
      ],
      "stateMutability": "nonpayable",
      "type": "constructor"
    },
    {
      "anonymous": false,
      "inputs": [
        {
          "indexed": true,
          "internalType": "address",
          "name": "owner",
          "type": "address"
        },
        {
          "indexed": true,
          "internalType": "address",
          "name": "approved",
          "type": "address"
        },
        {
          "indexed": true,
          "internalType": "uint256",
          "name": "tokenId",
          "type": "uint256"
        }
      ],
      "name": "Approval",
      "type": "event"
    },
    {
      "anonymous": false,
      "inputs": [
        {
          "indexed": true,
          "internalType": "address",
          "name": "owner",
          "type": "address"
        },
        {
          "indexed": true,
          "internalType": "address",
          "name": "operator",
          "type": "address"
        },
        {
          "indexed": false,
          "internalType": "bool",
          "name": "approved",
          "type": "bool"
        }
      ],
      "name": "ApprovalForAll",
      "type": "event"
    },
    {
      "anonymous": false,
      "inputs": [
        {
          "indexed": true,
          "internalType": "address",
          "name": "previousOwner",
          "type": "address"
        },
        {
          "indexed": true,
          "internalType": "address",
          "name": "newOwner",
          "type": "address"
        }
      ],
      "name": "OwnershipTransferred",
      "type": "event"
    },
    {
      "anonymous": false,
      "inputs": [
        {
          "indexed": true,
          "internalType": "address",
          "name": "from",
          "type": "address"
        },
        {
          "indexed": true,
          "internalType": "address",
          "name": "to",
          "type": "address"
        },
        {
          "indexed": true,
          "internalType": "uint256",
          "name": "tokenId",
          "type": "uint256"
        }
      ],
      "name": "Transfer",
      "type": "event"
    },
    {
      "stateMutability": "payable",
      "type": "fallback"
    },
    {
      "inputs": [
        {
          "internalType": "address",
          "name": "to",
          "type": "address"
        },
        {
          "internalType": "uint256",
          "name": "tokenId",
          "type": "uint256"
        }
      ],
      "name": "approve",
      "outputs": [],
      "stateMutability": "nonpayable",
      "type": "function"
    },
    {
      "inputs": [
        {
          "internalType": "address",
          "name": "owner",
          "type": "address"
        }
      ],
      "name": "balanceOf",
      "outputs": [
        {
          "internalType": "uint256",
          "name": "",
          "type": "uint256"
        }
      ],
      "stateMutability": "view",
      "type": "function"
    },
    {
      "inputs": [
        {
          "internalType": "uint256",
          "name": "tokenId",
          "type": "uint256"
        }
      ],
      "name": "getApproved",
      "outputs": [
        {
          "internalType": "address",
          "name": "",
          "type": "address"
        }
      ],
      "stateMutability": "view",
      "type": "function"
    },
    {
      "inputs": [
        {
          "internalType": "address",
          "name": "owner",
          "type": "address"
        },
        {
          "internalType": "address",
          "name": "operator",
          "type": "address"
        }
      ],
      "name": "isApprovedForAll",
      "outputs": [
        {
          "internalType": "bool",
          "name": "",
          "type": "bool"
        }
      ],
      "stateMutability": "view",
      "type": "function"
    },
    {
      "inputs": [],
      "name": "maxTokenIds",
      "outputs": [
        {
          "internalType": "uint256",
          "name": "",
          "type": "uint256"
        }
      ],
      "stateMutability": "view",
      "type": "function"
    },
    {
      "inputs": [],
      "name": "mint",
      "outputs": [],
      "stateMutability": "payable",
      "type": "function"
    },
    {
      "inputs": [],
      "name": "name",
      "outputs": [
        {
          "internalType": "string",
          "name": "",
          "type": "string"
        }
      ],
      "stateMutability": "view",
      "type": "function"
    },
    {
      "inputs": [],
      "name": "owner",
      "outputs": [
        {
          "internalType": "address",
          "name": "",
          "type": "address"
        }
      ],
      "stateMutability": "view",
      "type": "function"
    },
    {
      "inputs": [
        {
          "internalType": "uint256",
          "name": "tokenId",
          "type": "uint256"
        }
      ],
      "name": "ownerOf",
      "outputs": [
        {
          "internalType": "address",
          "name": "",
          "type": "address"
        }
      ],
      "stateMutability": "view",
      "type": "function"
    },
    {
      "inputs": [],
      "name": "paused",
      "outputs": [
        {
          "internalType": "bool",
          "name": "",
          "type": "bool"
        }
      ],
      "stateMutability": "view",
      "type": "function"
    },
    {
      "inputs": [],
      "name": "presaleMint",
      "outputs": [],
      "stateMutability": "payable",
      "type": "function"
    },
    {
      "inputs": [],
      "name": "presaleStarted",
      "outputs": [
        {
          "internalType": "bool",
          "name": "",
          "type": "bool"
        }
      ],
      "stateMutability": "view",
      "type": "function"
    },
    {
      "inputs": [],
      "name": "presaleTimeEnded",
      "outputs": [
        {
          "internalType": "uint256",
          "name": "",
          "type": "uint256"
        }
      ],
      "stateMutability": "view",
      "type": "function"
    },
    {
      "inputs": [],
      "name": "price",
      "outputs": [
        {
          "internalType": "uint256",
          "name": "",
          "type": "uint256"
        }
      ],
      "stateMutability": "view",
      "type": "function"
    },
    {
      "inputs": [],
      "name": "renounceOwnership",
      "outputs": [],
      "stateMutability": "nonpayable",
      "type": "function"
    },
    {
      "inputs": [
        {
          "internalType": "address",
          "name": "from",
          "type": "address"
        },
        {
          "internalType": "address",
          "name": "to",
          "type": "address"
        },
        {
          "internalType": "uint256",
          "name": "tokenId",
          "type": "uint256"
        }
      ],
      "name": "safeTransferFrom",
      "outputs": [],
      "stateMutability": "nonpayable",
      "type": "function"
    },
    {
      "inputs": [
        {
          "internalType": "address",
          "name": "from",
          "type": "address"
        },
        {
          "internalType": "address",
          "name": "to",
          "type": "address"
        },
        {
          "internalType": "uint256",
          "name": "tokenId",
          "type": "uint256"
        },
        {
          "internalType": "bytes",
          "name": "_data",
          "type": "bytes"
        }
      ],
      "name": "safeTransferFrom",
      "outputs": [],
      "stateMutability": "nonpayable",
      "type": "function"
    },
    {
      "inputs": [
        {
          "internalType": "address",
          "name": "operator",
          "type": "address"
        },
        {
          "internalType": "bool",
          "name": "approved",
          "type": "bool"
        }
      ],
      "name": "setApprovalForAll",
      "outputs": [],
      "stateMutability": "nonpayable",
      "type": "function"
    },
    {
      "inputs": [
        {
          "internalType": "bool",
          "name": "val",
          "type": "bool"
        }
      ],
      "name": "setPaused",
      "outputs": [],
      "stateMutability": "nonpayable",
      "type": "function"
    },
    {
      "inputs": [],
      "name": "startPresale",
      "outputs": [],
      "stateMutability": "nonpayable",
      "type": "function"
    },
    {
      "inputs": [
        {
          "internalType": "bytes4",
          "name": "interfaceId",
          "type": "bytes4"
        }
      ],
      "name": "supportsInterface",
      "outputs": [
        {
          "internalType": "bool",
          "name": "",
          "type": "bool"
        }
      ],
      "stateMutability": "view",
      "type": "function"
    },
    {
      "inputs": [],
      "name": "symbol",
      "outputs": [
        {
          "internalType": "string",
          "name": "",
          "type": "string"
        }
      ],
      "stateMutability": "view",
      "type": "function"
    },
    {
      "inputs": [
        {
          "internalType": "uint256",
          "name": "index",
          "type": "uint256"
        }
      ],
      "name": "tokenByIndex",
      "outputs": [
        {
          "internalType": "uint256",
          "name": "",
          "type": "uint256"
        }
      ],
      "stateMutability": "view",
      "type": "function"
    },
    {
      "inputs": [],
      "name": "tokenIds",
      "outputs": [
        {
          "internalType": "uint256",
          "name": "",
          "type": "uint256"
        }
      ],
      "stateMutability": "view",
      "type": "function"
    },
    {
      "inputs": [
        {
          "internalType": "address",
          "name": "owner",
          "type": "address"
        },
        {
          "internalType": "uint256",
          "name": "index",
          "type": "uint256"
        }
      ],
      "name": "tokenOfOwnerByIndex",
      "outputs": [
        {
          "internalType": "uint256",
          "name": "",
          "type": "uint256"
        }
      ],
      "stateMutability": "view",
      "type": "function"
    },
    {
      "inputs": [
        {
          "internalType": "uint256",
          "name": "tokenId",
          "type": "uint256"
        }
      ],
      "name": "tokenURI",
      "outputs": [
        {
          "internalType": "string",
          "name": "",
          "type": "string"
        }
      ],
      "stateMutability": "view",
      "type": "function"
    },
    {
      "inputs": [],
      "name": "totalSupply",
      "outputs": [
        {
          "internalType": "uint256",
          "name": "",
          "type": "uint256"
        }
      ],
      "stateMutability": "view",
      "type": "function"
    },
    {
      "inputs": [
        {
          "internalType": "address",
          "name": "from",
          "type": "address"
        },
        {
          "internalType": "address",
          "name": "to",
          "type": "address"
        },
        {
          "internalType": "uint256",
          "name": "tokenId",
          "type": "uint256"
        }
      ],
      "name": "transferFrom",
      "outputs": [],
      "stateMutability": "nonpayable",
      "type": "function"
    },
    {
      "inputs": [
        {
          "internalType": "address",
          "name": "newOwner",
          "type": "address"
        }
      ],
      "name": "transferOwnership",
      "outputs": [],
      "stateMutability": "nonpayable",
      "type": "function"
    },
    {
      "inputs": [],
      "name": "withdraw",
      "outputs": [],
      "stateMutability": "nonpayable",
      "type": "function"
    },
    {
      "stateMutability": "payable",
      "type": "receive"
    }
  ],
  "bytecode": "0x6080604052662386f26fc10000600c556014600e556000601060146101000a81548160ff0219169083151502179055503480156200003c57600080fd5b50604051620046ad380380620046ad83398181016040528101906200006291906200038b565b6040518060400160405280600b81526020017f43727970746f20446576730000000000000000000000000000000000000000008152506040518060400160405280600281526020017f43440000000000000000000000000000000000000000000000000000000000008152508160009080519060200190620000e692919062000252565b508060019080519060200190620000ff92919062000252565b50505062000122620001166200018460201b60201c565b6200018c60201b60201c565b81600b90805190602001906200013a92919062000252565b5080601060006101000a81548173ffffffffffffffffffffffffffffffffffffffff021916908373ffffffffffffffffffffffffffffffffffffffff1602179055505050620005a3565b600033905090565b6000600a60009054906101000a900473ffffffffffffffffffffffffffffffffffffffff16905081600a60006101000a81548173ffffffffffffffffffffffffffffffffffffffff021916908373ffffffffffffffffffffffffffffffffffffffff1602179055508173ffffffffffffffffffffffffffffffffffffffff168173ffffffffffffffffffffffffffffffffffffffff167f8be0079c531659141344cd1fd0a4f28419497f9722a3daafe3b4186f6b6457e060405160405180910390a35050565b8280546200026090620004ae565b90600052602060002090601f016020900481019282620002845760008555620002d0565b82601f106200029f57805160ff1916838001178555620002d0565b82800160010185558215620002d0579182015b82811115620002cf578251825591602001919060010190620002b2565b5b509050620002df9190620002e3565b5090565b5b80821115620002fe576000816000905550600101620002e4565b5090565b60006200031962000313846200040e565b620003e5565b9050828152602081018484840111156200033257600080fd5b6200033f84828562000478565b509392505050565b600081519050620003588162000589565b92915050565b600082601f8301126200037057600080fd5b81516200038284826020860162000302565b91505092915050565b600080604083850312156200039f57600080fd5b600083015167ffffffffffffffff811115620003ba57600080fd5b620003c8858286016200035e565b9250506020620003db8582860162000347565b9150509250929050565b6000620003f162000404565b9050620003ff8282620004e4565b919050565b6000604051905090565b600067ffffffffffffffff8211156200042c576200042b62000549565b5b620004378262000578565b9050602081019050919050565b6000620004518262000458565b9050919050565b600073ffffffffffffffffffffffffffffffffffffffff82169050919050565b60005b83811015620004985780820151818401526020810190506200047b565b83811115620004a8576000848401525b50505050565b60006002820490506001821680620004c757607f821691505b60208210811415620004de57620004dd6200051a565b5b50919050565b620004ef8262000578565b810181811067ffffffffffffffff8211171562000511576200051062000549565b5b80604052505050565b7f4e487b7100000000000000000000000000000000000000000000000000000000600052602260045260246000fd5b7f4e487b7100000000000000000000000000000000000000000000000000000000600052604160045260246000fd5b6000601f19601f8301169050919050565b620005948162000444565b8114620005a057600080fd5b50565b6140fa80620005b36000396000f3fe6080604052600436106101d15760003560e01c806359533d6c116100f75780638da5cb5b11610095578063b88d4fde11610064578063b88d4fde1461061c578063c87b56dd14610645578063e985e9c514610682578063f2fde38b146106bf576101d8565b80638da5cb5b1461057257806395d89b411461059d578063a035b1fe146105c8578063a22cb465146105f3576101d8565b80636352211e116100d15780636352211e146104b657806370a08231146104f3578063714cff5614610530578063715018a61461055b576101d8565b806359533d6c146104565780635c975abb146104605780635f7696211461048b576101d8565b806316c38b3c1161016f578063352d9dca1161013e578063352d9dca146103ae5780633ccfd60b146103d957806342842e0e146103f05780634f6ccce714610419576101d8565b806316c38b3c146102f457806318160ddd1461031d57806323b872dd146103485780632f745c5914610371576101d8565b806306fdde03116101ab57806306fdde0314610259578063081812fc14610284578063095ea7b3146102c15780631249c58b146102ea576101d8565b806301ffc9a7146101da57806304549d6f1461021757806304c98b2b14610242576101d8565b366101d857005b005b3480156101e657600080fd5b5061020160048036038101906101fc9190612d7a565b6106e8565b60405161020e91906132f3565b60405180910390f35b34801561022357600080fd5b5061022c610762565b60405161023991906132f3565b60405180910390f35b34801561024e57600080fd5b50610257610775565b005b34801561026557600080fd5b5061026e610872565b60405161027b919061330e565b60405180910390f35b34801561029057600080fd5b506102ab60048036038101906102a69190612dcc565b610904565b6040516102b8919061328c565b60405180910390f35b3480156102cd57600080fd5b506102e860048036038101906102e39190612cec565b610989565b005b6102f2610aa1565b005b34801561030057600080fd5b5061031b60048036038101906103169190612d28565b610bff565b005b34801561032957600080fd5b50610332610c98565b60405161033f9190613650565b60405180910390f35b34801561035457600080fd5b5061036f600480360381019061036a9190612be6565b610ca5565b005b34801561037d57600080fd5b5061039860048036038101906103939190612cec565b610d05565b6040516103a59190613650565b60405180910390f35b3480156103ba57600080fd5b506103c3610daa565b6040516103d09190613650565b60405180910390f35b3480156103e557600080fd5b506103ee610db0565b005b3480156103fc57600080fd5b5061041760048036038101906104129190612be6565b610eee565b005b34801561042557600080fd5b50610440600480360381019061043b9190612dcc565b610f0e565b60405161044d9190613650565b60405180910390f35b61045e610fa5565b005b34801561046c57600080fd5b506104756111ee565b60405161048291906132f3565b60405180910390f35b34801561049757600080fd5b506104a0611201565b6040516104ad9190613650565b60405180910390f35b3480156104c257600080fd5b506104dd60048036038101906104d89190612dcc565b611207565b6040516104ea919061328c565b60405180910390f35b3480156104ff57600080fd5b5061051a60048036038101906105159190612b81565b6112b9565b6040516105279190613650565b60405180910390f35b34801561053c57600080fd5b50610545611371565b6040516105529190613650565b60405180910390f35b34801561056757600080fd5b50610570611377565b005b34801561057e57600080fd5b506105876113ff565b604051610594919061328c565b60405180910390f35b3480156105a957600080fd5b506105b2611429565b6040516105bf919061330e565b60405180910390f35b3480156105d457600080fd5b506105dd6114bb565b6040516105ea9190613650565b60405180910390f35b3480156105ff57600080fd5b5061061a60048036038101906106159190612cb0565b6114c1565b005b34801561062857600080fd5b50610643600480360381019061063e9190612c35565b6114d7565b005b34801561065157600080fd5b5061066c60048036038101906106679190612dcc565b611539565b604051610679919061330e565b60405180910390f35b34801561068e57600080fd5b506106a960048036038101906106a49190612baa565b6115e0565b6040516106b691906132f3565b60405180910390f35b3480156106cb57600080fd5b506106e660048036038101906106e19190612b81565b611674565b005b60007f780e9d63000000000000000000000000000000000000000000000000000000007bffffffffffffffffffffffffffffffffffffffffffffffffffffffff1916827bffffffffffffffffffffffffffffffffffffffffffffffffffffffff1916148061075b575061075a8261176c565b5b9050919050565b601060149054906101000a900460ff1681565b61077d61184e565b73ffffffffffffffffffffffffffffffffffffffff1661079b6113ff565b73ffffffffffffffffffffffffffffffffffffffff16146107f1576040517f08c379a00000000000000000000000000000000000000000000000000000000081526004016107e890613590565b60405180910390fd5b600d60009054906101000a900460ff1615610841576040517f08c379a000000000000000000000000000000000000000000000000000000000815260040161083890613510565b60405180910390fd5b6001601060146101000a81548160ff0219169083151502179055506103844261086a919061370f565b601181905550565b60606000805461088190613880565b80601f01602080910402602001604051908101604052809291908181526020018280546108ad90613880565b80156108fa5780601f106108cf576101008083540402835291602001916108fa565b820191906000526020600020905b8154815290600101906020018083116108dd57829003601f168201915b5050505050905090565b600061090f82611856565b61094e576040517f08c379a000000000000000000000000000000000000000000000000000000000815260040161094590613550565b60405180910390fd5b6004600083815260200190815260200160002060009054906101000a900473ffffffffffffffffffffffffffffffffffffffff169050919050565b600061099482611207565b90508073ffffffffffffffffffffffffffffffffffffffff168373ffffffffffffffffffffffffffffffffffffffff161415610a05576040517f08c379a00000000000000000000000000000000000000000000000000000000081526004016109fc906135d0565b60405180910390fd5b8073ffffffffffffffffffffffffffffffffffffffff16610a2461184e565b73ffffffffffffffffffffffffffffffffffffffff161480610a535750610a5281610a4d61184e565b6115e0565b5b610a92576040517f08c379a0000000000000000000000000000000000000000000000000000000008152600401610a8990613490565b60405180910390fd5b610a9c83836118c2565b505050565b600d60009054906101000a900460ff1615610af1576040517f08c379a0000000000000000000000000000000000000000000000000000000008152600401610ae890613510565b60405180910390fd5b601060149054906101000a900460ff168015610b0e575060115442115b610b4d576040517f08c379a0000000000000000000000000000000000000000000000000000000008152600401610b44906133f0565b60405180910390fd5b600e54600f5410610b93576040517f08c379a0000000000000000000000000000000000000000000000000000000008152600401610b8a90613330565b60405180910390fd5b600c543414610bd7576040517f08c379a0000000000000000000000000000000000000000000000000000000008152600401610bce90613570565b60405180910390fd5b6001600f6000828254610bea919061370f565b92505081905550610bfd33600f5461197b565b565b610c0761184e565b73ffffffffffffffffffffffffffffffffffffffff16610c256113ff565b73ffffffffffffffffffffffffffffffffffffffff1614610c7b576040517f08c379a0000000000000000000000000000000000000000000000000000000008152600401610c7290613590565b60405180910390fd5b80600d60006101000a81548160ff02191690831515021790555050565b6000600880549050905090565b610cb6610cb061184e565b82611999565b610cf5576040517f08c379a0000000000000000000000000000000000000000000000000000000008152600401610cec906135f0565b60405180910390fd5b610d00838383611a77565b505050565b6000610d10836112b9565b8210610d51576040517f08c379a0000000000000000000000000000000000000000000000000000000008152600401610d4890613350565b60405180910390fd5b600660008473ffffffffffffffffffffffffffffffffffffffff1673ffffffffffffffffffffffffffffffffffffffff168152602001908152602001600020600083815260200190815260200160002054905092915050565b60115481565b610db861184e565b73ffffffffffffffffffffffffffffffffffffffff16610dd66113ff565b73ffffffffffffffffffffffffffffffffffffffff1614610e2c576040517f08c379a0000000000000000000000000000000000000000000000000000000008152600401610e2390613590565b60405180910390fd5b6000610e366113ff565b9050600047905060008273ffffffffffffffffffffffffffffffffffffffff1682604051610e6390613277565b60006040518083038185875af1925050503d8060008114610ea0576040519150601f19603f3d011682016040523d82523d6000602084013e610ea5565b606091505b5050905080610ee9576040517f08c379a0000000000000000000000000000000000000000000000000000000008152600401610ee090613410565b60405180910390fd5b505050565b610f09838383604051806020016040528060008152506114d7565b505050565b6000610f18610c98565b8210610f59576040517f08c379a0000000000000000000000000000000000000000000000000000000008152600401610f5090613610565b60405180910390fd5b60088281548110610f93577f4e487b7100000000000000000000000000000000000000000000000000000000600052603260045260246000fd5b90600052602060002001549050919050565b600d60009054906101000a900460ff1615610ff5576040517f08c379a0000000000000000000000000000000000000000000000000000000008152600401610fec90613510565b60405180910390fd5b601060149054906101000a900460ff16801561101357506011544211155b611052576040517f08c379a0000000000000000000000000000000000000000000000000000000008152600401611049906134b0565b60405180910390fd5b601060009054906101000a900473ffffffffffffffffffffffffffffffffffffffff1673ffffffffffffffffffffffffffffffffffffffff166306c933d8336040518263ffffffff1660e01b81526004016110ad919061328c565b60206040518083038186803b1580156110c557600080fd5b505afa1580156110d9573d6000803e3d6000fd5b505050506040513d601f19601f820116820180604052508101906110fd9190612d51565b61113c576040517f08c379a000000000000000000000000000000000000000000000000000000000815260040161113390613630565b60405180910390fd5b600e54600f5410611182576040517f08c379a000000000000000000000000000000000000000000000000000000000815260040161117990613330565b60405180910390fd5b600c5434146111c6576040517f08c379a00000000000000000000000000000000000000000000000000000000081526004016111bd90613570565b60405180910390fd5b6001600f60008282546111d9919061370f565b925050819055506111ec33600f5461197b565b565b600d60009054906101000a900460ff1681565b600e5481565b6000806002600084815260200190815260200160002060009054906101000a900473ffffffffffffffffffffffffffffffffffffffff169050600073ffffffffffffffffffffffffffffffffffffffff168173ffffffffffffffffffffffffffffffffffffffff1614156112b0576040517f08c379a00000000000000000000000000000000000000000000000000000000081526004016112a7906134f0565b60405180910390fd5b80915050919050565b60008073ffffffffffffffffffffffffffffffffffffffff168273ffffffffffffffffffffffffffffffffffffffff16141561132a576040517f08c379a0000000000000000000000000000000000000000000000000000000008152600401611321906134d0565b60405180910390fd5b600360008373ffffffffffffffffffffffffffffffffffffffff1673ffffffffffffffffffffffffffffffffffffffff168152602001908152602001600020549050919050565b600f5481565b61137f61184e565b73ffffffffffffffffffffffffffffffffffffffff1661139d6113ff565b73ffffffffffffffffffffffffffffffffffffffff16146113f3576040517f08c379a00000000000000000000000000000000000000000000000000000000081526004016113ea90613590565b60405180910390fd5b6113fd6000611cde565b565b6000600a60009054906101000a900473ffffffffffffffffffffffffffffffffffffffff16905090565b60606001805461143890613880565b80601f016020809104026020016040519081016040528092919081815260200182805461146490613880565b80156114b15780601f10611486576101008083540402835291602001916114b1565b820191906000526020600020905b81548152906001019060200180831161149457829003601f168201915b5050505050905090565b600c5481565b6114d36114cc61184e565b8383611da4565b5050565b6114e86114e261184e565b83611999565b611527576040517f08c379a000000000000000000000000000000000000000000000000000000000815260040161151e906135f0565b60405180910390fd5b61153384848484611f11565b50505050565b606061154482611856565b611583576040517f08c379a000000000000000000000000000000000000000000000000000000000815260040161157a906135b0565b60405180910390fd5b600061158d611f6d565b905060008151116115ad57604051806020016040528060008152506115d8565b806115b784611fff565b6040516020016115c8929190613253565b6040516020818303038152906040525b915050919050565b6000600560008473ffffffffffffffffffffffffffffffffffffffff1673ffffffffffffffffffffffffffffffffffffffff16815260200190815260200160002060008373ffffffffffffffffffffffffffffffffffffffff1673ffffffffffffffffffffffffffffffffffffffff16815260200190815260200160002060009054906101000a900460ff16905092915050565b61167c61184e565b73ffffffffffffffffffffffffffffffffffffffff1661169a6113ff565b73ffffffffffffffffffffffffffffffffffffffff16146116f0576040517f08c379a00000000000000000000000000000000000000000000000000000000081526004016116e790613590565b60405180910390fd5b600073ffffffffffffffffffffffffffffffffffffffff168173ffffffffffffffffffffffffffffffffffffffff161415611760576040517f08c379a000000000000000000000000000000000000000000000000000000000815260040161175790613390565b60405180910390fd5b61176981611cde565b50565b60007f80ac58cd000000000000000000000000000000000000000000000000000000007bffffffffffffffffffffffffffffffffffffffffffffffffffffffff1916827bffffffffffffffffffffffffffffffffffffffffffffffffffffffff1916148061183757507f5b5e139f000000000000000000000000000000000000000000000000000000007bffffffffffffffffffffffffffffffffffffffffffffffffffffffff1916827bffffffffffffffffffffffffffffffffffffffffffffffffffffffff1916145b806118475750611846826121ac565b5b9050919050565b600033905090565b60008073ffffffffffffffffffffffffffffffffffffffff166002600084815260200190815260200160002060009054906101000a900473ffffffffffffffffffffffffffffffffffffffff1673ffffffffffffffffffffffffffffffffffffffff1614159050919050565b816004600083815260200190815260200160002060006101000a81548173ffffffffffffffffffffffffffffffffffffffff021916908373ffffffffffffffffffffffffffffffffffffffff160217905550808273ffffffffffffffffffffffffffffffffffffffff1661193583611207565b73ffffffffffffffffffffffffffffffffffffffff167f8c5be1e5ebec7d5bd14f71427d1e84f3dd0314c0f7b2291e5b200ac8c7c3b92560405160405180910390a45050565b611995828260405180602001604052806000815250612216565b5050565b60006119a482611856565b6119e3576040517f08c379a00000000000000000000000000000000000000000000000000000000081526004016119da90613470565b60405180910390fd5b60006119ee83611207565b90508073ffffffffffffffffffffffffffffffffffffffff168473ffffffffffffffffffffffffffffffffffffffff161480611a305750611a2f81856115e0565b5b80611a6e57508373ffffffffffffffffffffffffffffffffffffffff16611a5684610904565b73ffffffffffffffffffffffffffffffffffffffff16145b91505092915050565b8273ffffffffffffffffffffffffffffffffffffffff16611a9782611207565b73ffffffffffffffffffffffffffffffffffffffff1614611aed576040517f08c379a0000000000000000000000000000000000000000000000000000000008152600401611ae4906133b0565b60405180910390fd5b600073ffffffffffffffffffffffffffffffffffffffff168273ffffffffffffffffffffffffffffffffffffffff161415611b5d576040517f08c379a0000000000000000000000000000000000000000000000000000000008152600401611b5490613430565b60405180910390fd5b611b68838383612271565b611b736000826118c2565b6001600360008573ffffffffffffffffffffffffffffffffffffffff1673ffffffffffffffffffffffffffffffffffffffff1681526020019081526020016000206000828254611bc39190613796565b925050819055506001600360008473ffffffffffffffffffffffffffffffffffffffff1673ffffffffffffffffffffffffffffffffffffffff1681526020019081526020016000206000828254611c1a919061370f565b92505081905550816002600083815260200190815260200160002060006101000a81548173ffffffffffffffffffffffffffffffffffffffff021916908373ffffffffffffffffffffffffffffffffffffffff160217905550808273ffffffffffffffffffffffffffffffffffffffff168473ffffffffffffffffffffffffffffffffffffffff167fddf252ad1be2c89b69c2b068fc378daa952ba7f163c4a11628f55a4df523b3ef60405160405180910390a4611cd9838383612385565b505050565b6000600a60009054906101000a900473ffffffffffffffffffffffffffffffffffffffff16905081600a60006101000a81548173ffffffffffffffffffffffffffffffffffffffff021916908373ffffffffffffffffffffffffffffffffffffffff1602179055508173ffffffffffffffffffffffffffffffffffffffff168173ffffffffffffffffffffffffffffffffffffffff167f8be0079c531659141344cd1fd0a4f28419497f9722a3daafe3b4186f6b6457e060405160405180910390a35050565b8173ffffffffffffffffffffffffffffffffffffffff168373ffffffffffffffffffffffffffffffffffffffff161415611e13576040517f08c379a0000000000000000000000000000000000000000000000000000000008152600401611e0a90613450565b60405180910390fd5b80600560008573ffffffffffffffffffffffffffffffffffffffff1673ffffffffffffffffffffffffffffffffffffffff16815260200190815260200160002060008473ffffffffffffffffffffffffffffffffffffffff1673ffffffffffffffffffffffffffffffffffffffff16815260200190815260200160002060006101000a81548160ff0219169083151502179055508173ffffffffffffffffffffffffffffffffffffffff168373ffffffffffffffffffffffffffffffffffffffff167f17307eab39ab6107e8899845ad3d59bd9653f200f220920489ca2b5937696c3183604051611f0491906132f3565b60405180910390a3505050565b611f1c848484611a77565b611f288484848461238a565b611f67576040517f08c379a0000000000000000000000000000000000000000000000000000000008152600401611f5e90613370565b60405180910390fd5b50505050565b6060600b8054611f7c90613880565b80601f0160208091040260200160405190810160405280929190818152602001828054611fa890613880565b8015611ff55780601f10611fca57610100808354040283529160200191611ff5565b820191906000526020600020905b815481529060010190602001808311611fd857829003601f168201915b5050505050905090565b60606000821415612047576040518060400160405280600181526020017f300000000000000000000000000000000000000000000000000000000000000081525090506121a7565b600082905060005b60008214612079578080612062906138e3565b915050600a826120729190613765565b915061204f565b60008167ffffffffffffffff8111156120bb577f4e487b7100000000000000000000000000000000000000000000000000000000600052604160045260246000fd5b6040519080825280601f01601f1916602001820160405280156120ed5781602001600182028036833780820191505090505b5090505b600085146121a0576001826121069190613796565b9150600a85612115919061392c565b6030612121919061370f565b60f81b81838151811061215d577f4e487b7100000000000000000000000000000000000000000000000000000000600052603260045260246000fd5b60200101907effffffffffffffffffffffffffffffffffffffffffffffffffffffffffffff1916908160001a905350600a856121999190613765565b94506120f1565b8093505050505b919050565b60007f01ffc9a7000000000000000000000000000000000000000000000000000000007bffffffffffffffffffffffffffffffffffffffffffffffffffffffff1916827bffffffffffffffffffffffffffffffffffffffffffffffffffffffff1916149050919050565b6122208383612521565b61222d600084848461238a565b61226c576040517f08c379a000000000000000000000000000000000000000000000000000000000815260040161226390613370565b60405180910390fd5b505050565b61227c8383836126fb565b600073ffffffffffffffffffffffffffffffffffffffff168373ffffffffffffffffffffffffffffffffffffffff1614156122bf576122ba81612700565b6122fe565b8173ffffffffffffffffffffffffffffffffffffffff168373ffffffffffffffffffffffffffffffffffffffff16146122fd576122fc8382612749565b5b5b600073ffffffffffffffffffffffffffffffffffffffff168273ffffffffffffffffffffffffffffffffffffffff1614156123415761233c816128b6565b612380565b8273ffffffffffffffffffffffffffffffffffffffff168273ffffffffffffffffffffffffffffffffffffffff161461237f5761237e82826129f9565b5b5b505050565b505050565b60006123ab8473ffffffffffffffffffffffffffffffffffffffff16612a78565b15612514578373ffffffffffffffffffffffffffffffffffffffff1663150b7a026123d461184e565b8786866040518563ffffffff1660e01b81526004016123f694939291906132a7565b602060405180830381600087803b15801561241057600080fd5b505af192505050801561244157506040513d601f19601f8201168201806040525081019061243e9190612da3565b60015b6124c4573d8060008114612471576040519150601f19603f3d011682016040523d82523d6000602084013e612476565b606091505b506000815114156124bc576040517f08c379a00000000000000000000000000000000000000000000000000000000081526004016124b390613370565b60405180910390fd5b805181602001fd5b63150b7a0260e01b7bffffffffffffffffffffffffffffffffffffffffffffffffffffffff1916817bffffffffffffffffffffffffffffffffffffffffffffffffffffffff191614915050612519565b600190505b949350505050565b600073ffffffffffffffffffffffffffffffffffffffff168273ffffffffffffffffffffffffffffffffffffffff161415612591576040517f08c379a000000000000000000000000000000000000000000000000000000000815260040161258890613530565b60405180910390fd5b61259a81611856565b156125da576040517f08c379a00000000000000000000000000000000000000000000000000000000081526004016125d1906133d0565b60405180910390fd5b6125e660008383612271565b6001600360008473ffffffffffffffffffffffffffffffffffffffff1673ffffffffffffffffffffffffffffffffffffffff1681526020019081526020016000206000828254612636919061370f565b92505081905550816002600083815260200190815260200160002060006101000a81548173ffffffffffffffffffffffffffffffffffffffff021916908373ffffffffffffffffffffffffffffffffffffffff160217905550808273ffffffffffffffffffffffffffffffffffffffff16600073ffffffffffffffffffffffffffffffffffffffff167fddf252ad1be2c89b69c2b068fc378daa952ba7f163c4a11628f55a4df523b3ef60405160405180910390a46126f760008383612385565b5050565b505050565b6008805490506009600083815260200190815260200160002081905550600881908060018154018082558091505060019003906000526020600020016000909190919091505550565b60006001612756846112b9565b6127609190613796565b9050600060076000848152602001908152602001600020549050818114612845576000600660008673ffffffffffffffffffffffffffffffffffffffff1673ffffffffffffffffffffffffffffffffffffffff168152602001908152602001600020600084815260200190815260200160002054905080600660008773ffffffffffffffffffffffffffffffffffffffff1673ffffffffffffffffffffffffffffffffffffffff168152602001908152602001600020600084815260200190815260200160002081905550816007600083815260200190815260200160002081905550505b6007600084815260200190815260200160002060009055600660008573ffffffffffffffffffffffffffffffffffffffff1673ffffffffffffffffffffffffffffffffffffffff16815260200190815260200160002060008381526020019081526020016000206000905550505050565b600060016008805490506128ca9190613796565b9050600060096000848152602001908152602001600020549050600060088381548110612920577f4e487b7100000000000000000000000000000000000000000000000000000000600052603260045260246000fd5b906000526020600020015490508060088381548110612968577f4e487b7100000000000000000000000000000000000000000000000000000000600052603260045260246000fd5b9060005260206000200181905550816009600083815260200190815260200160002081905550600960008581526020019081526020016000206000905560088054806129dd577f4e487b7100000000000000000000000000000000000000000000000000000000600052603160045260246000fd5b6001900381819060005260206000200160009055905550505050565b6000612a04836112b9565b905081600660008573ffffffffffffffffffffffffffffffffffffffff1673ffffffffffffffffffffffffffffffffffffffff168152602001908152602001600020600083815260200190815260200160002081905550806007600084815260200190815260200160002081905550505050565b6000808273ffffffffffffffffffffffffffffffffffffffff163b119050919050565b6000612aae612aa984613690565b61366b565b905082815260208101848484011115612ac657600080fd5b612ad184828561383e565b509392505050565b600081359050612ae881614068565b92915050565b600081359050612afd8161407f565b92915050565b600081519050612b128161407f565b92915050565b600081359050612b2781614096565b92915050565b600081519050612b3c81614096565b92915050565b600082601f830112612b5357600080fd5b8135612b63848260208601612a9b565b91505092915050565b600081359050612b7b816140ad565b92915050565b600060208284031215612b9357600080fd5b6000612ba184828501612ad9565b91505092915050565b60008060408385031215612bbd57600080fd5b6000612bcb85828601612ad9565b9250506020612bdc85828601612ad9565b9150509250929050565b600080600060608486031215612bfb57600080fd5b6000612c0986828701612ad9565b9350506020612c1a86828701612ad9565b9250506040612c2b86828701612b6c565b9150509250925092565b60008060008060808587031215612c4b57600080fd5b6000612c5987828801612ad9565b9450506020612c6a87828801612ad9565b9350506040612c7b87828801612b6c565b925050606085013567ffffffffffffffff811115612c9857600080fd5b612ca487828801612b42565b91505092959194509250565b60008060408385031215612cc357600080fd5b6000612cd185828601612ad9565b9250506020612ce285828601612aee565b9150509250929050565b60008060408385031215612cff57600080fd5b6000612d0d85828601612ad9565b9250506020612d1e85828601612b6c565b9150509250929050565b600060208284031215612d3a57600080fd5b6000612d4884828501612aee565b91505092915050565b600060208284031215612d6357600080fd5b6000612d7184828501612b03565b91505092915050565b600060208284031215612d8c57600080fd5b6000612d9a84828501612b18565b91505092915050565b600060208284031215612db557600080fd5b6000612dc384828501612b2d565b91505092915050565b600060208284031215612dde57600080fd5b6000612dec84828501612b6c565b91505092915050565b612dfe816137ca565b82525050565b612e0d816137dc565b82525050565b6000612e1e826136c1565b612e2881856136d7565b9350612e3881856020860161384d565b612e4181613a19565b840191505092915050565b6000612e57826136cc565b612e6181856136f3565b9350612e7181856020860161384d565b612e7a81613a19565b840191505092915050565b6000612e90826136cc565b612e9a8185613704565b9350612eaa81856020860161384d565b80840191505092915050565b6000612ec3600f836136f3565b9150612ece82613a2a565b602082019050919050565b6000612ee6602b836136f3565b9150612ef182613a53565b604082019050919050565b6000612f096032836136f3565b9150612f1482613aa2565b604082019050919050565b6000612f2c6026836136f3565b9150612f3782613af1565b604082019050919050565b6000612f4f6025836136f3565b9150612f5a82613b40565b604082019050919050565b6000612f72601c836136f3565b9150612f7d82613b8f565b602082019050919050565b6000612f956013836136f3565b9150612fa082613bb8565b602082019050919050565b6000612fb86014836136f3565b9150612fc382613be1565b602082019050919050565b6000612fdb6024836136f3565b9150612fe682613c0a565b604082019050919050565b6000612ffe6019836136f3565b915061300982613c59565b602082019050919050565b6000613021602c836136f3565b915061302c82613c82565b604082019050919050565b60006130446038836136f3565b915061304f82613cd1565b604082019050919050565b60006130676018836136f3565b915061307282613d20565b602082019050919050565b600061308a602a836136f3565b915061309582613d49565b604082019050919050565b60006130ad6029836136f3565b91506130b882613d98565b604082019050919050565b60006130d06024836136f3565b91506130db82613de7565b604082019050919050565b60006130f36020836136f3565b91506130fe82613e36565b602082019050919050565b6000613116602c836136f3565b915061312182613e5f565b604082019050919050565b60006131396013836136f3565b915061314482613eae565b602082019050919050565b600061315c6020836136f3565b915061316782613ed7565b602082019050919050565b600061317f602f836136f3565b915061318a82613f00565b604082019050919050565b60006131a26021836136f3565b91506131ad82613f4f565b604082019050919050565b60006131c56000836136e8565b91506131d082613f9e565b600082019050919050565b60006131e86031836136f3565b91506131f382613fa1565b604082019050919050565b600061320b602c836136f3565b915061321682613ff0565b604082019050919050565b600061322e6014836136f3565b91506132398261403f565b602082019050919050565b61324d81613834565b82525050565b600061325f8285612e85565b915061326b8284612e85565b91508190509392505050565b6000613282826131b8565b9150819050919050565b60006020820190506132a16000830184612df5565b92915050565b60006080820190506132bc6000830187612df5565b6132c96020830186612df5565b6132d66040830185613244565b81810360608301526132e88184612e13565b905095945050505050565b60006020820190506133086000830184612e04565b92915050565b600060208201905081810360008301526133288184612e4c565b905092915050565b6000602082019050818103600083015261334981612eb6565b9050919050565b6000602082019050818103600083015261336981612ed9565b9050919050565b6000602082019050818103600083015261338981612efc565b9050919050565b600060208201905081810360008301526133a981612f1f565b9050919050565b600060208201905081810360008301526133c981612f42565b9050919050565b600060208201905081810360008301526133e981612f65565b9050919050565b6000602082019050818103600083015261340981612f88565b9050919050565b6000602082019050818103600083015261342981612fab565b9050919050565b6000602082019050818103600083015261344981612fce565b9050919050565b6000602082019050818103600083015261346981612ff1565b9050919050565b6000602082019050818103600083015261348981613014565b9050919050565b600060208201905081810360008301526134a981613037565b9050919050565b600060208201905081810360008301526134c98161305a565b9050919050565b600060208201905081810360008301526134e98161307d565b9050919050565b60006020820190508181036000830152613509816130a0565b9050919050565b60006020820190508181036000830152613529816130c3565b9050919050565b60006020820190508181036000830152613549816130e6565b9050919050565b6000602082019050818103600083015261356981613109565b9050919050565b600060208201905081810360008301526135898161312c565b9050919050565b600060208201905081810360008301526135a98161314f565b9050919050565b600060208201905081810360008301526135c981613172565b9050919050565b600060208201905081810360008301526135e981613195565b9050919050565b60006020820190508181036000830152613609816131db565b9050919050565b60006020820190508181036000830152613629816131fe565b9050919050565b6000602082019050818103600083015261364981613221565b9050919050565b60006020820190506136656000830184613244565b92915050565b6000613675613686565b905061368182826138b2565b919050565b6000604051905090565b600067ffffffffffffffff8211156136ab576136aa6139ea565b5b6136b482613a19565b9050602081019050919050565b600081519050919050565b600081519050919050565b600082825260208201905092915050565b600081905092915050565b600082825260208201905092915050565b600081905092915050565b600061371a82613834565b915061372583613834565b9250827fffffffffffffffffffffffffffffffffffffffffffffffffffffffffffffffff0382111561375a5761375961395d565b5b828201905092915050565b600061377082613834565b915061377b83613834565b92508261378b5761378a61398c565b5b828204905092915050565b60006137a182613834565b91506137ac83613834565b9250828210156137bf576137be61395d565b5b828203905092915050565b60006137d582613814565b9050919050565b60008115159050919050565b60007fffffffff0000000000000000000000000000000000000000000000000000000082169050919050565b600073ffffffffffffffffffffffffffffffffffffffff82169050919050565b6000819050919050565b82818337600083830152505050565b60005b8381101561386b578082015181840152602081019050613850565b8381111561387a576000848401525b50505050565b6000600282049050600182168061389857607f821691505b602082108114156138ac576138ab6139bb565b5b50919050565b6138bb82613a19565b810181811067ffffffffffffffff821117156138da576138d96139ea565b5b80604052505050565b60006138ee82613834565b91507fffffffffffffffffffffffffffffffffffffffffffffffffffffffffffffffff8214156139215761392061395d565b5b600182019050919050565b600061393782613834565b915061394283613834565b9250826139525761395161398c565b5b828206905092915050565b7f4e487b7100000000000000000000000000000000000000000000000000000000600052601160045260246000fd5b7f4e487b7100000000000000000000000000000000000000000000000000000000600052601260045260246000fd5b7f4e487b7100000000000000000000000000000000000000000000000000000000600052602260045260246000fd5b7f4e487b7100000000000000000000000000000000000000000000000000000000600052604160045260246000fd5b6000601f19601f8301169050919050565b7f57652061726520736f6c64206f75740000000000000000000000000000000000600082015250565b7f455243373231456e756d657261626c653a206f776e657220696e646578206f7560008201527f74206f6620626f756e6473000000000000000000000000000000000000000000602082015250565b7f4552433732313a207472616e7366657220746f206e6f6e20455243373231526560008201527f63656976657220696d706c656d656e7465720000000000000000000000000000602082015250565b7f4f776e61626c653a206e6577206f776e657220697320746865207a65726f206160008201527f6464726573730000000000000000000000000000000000000000000000000000602082015250565b7f4552433732313a207472616e736665722066726f6d20696e636f72726563742060008201527f6f776e6572000000000000000000000000000000000000000000000000000000602082015250565b7f4552433732313a20746f6b656e20616c7265616479206d696e74656400000000600082015250565b7f50726573616c65206973206e6f7420646f6e6500000000000000000000000000600082015250565b7f4661696c656420746f2073656e64204574686572000000000000000000000000600082015250565b7f4552433732313a207472616e7366657220746f20746865207a65726f2061646460008201527f7265737300000000000000000000000000000000000000000000000000000000602082015250565b7f4552433732313a20617070726f766520746f2063616c6c657200000000000000600082015250565b7f4552433732313a206f70657261746f7220717565727920666f72206e6f6e657860008201527f697374656e7420746f6b656e0000000000000000000000000000000000000000602082015250565b7f4552433732313a20617070726f76652063616c6c6572206973206e6f74206f7760008201527f6e6572206e6f7220617070726f76656420666f7220616c6c0000000000000000602082015250565b7f50726573616c65206973206e6f742068617070656e696e670000000000000000600082015250565b7f4552433732313a2062616c616e636520717565727920666f7220746865207a6560008201527f726f206164647265737300000000000000000000000000000000000000000000602082015250565b7f4552433732313a206f776e657220717565727920666f72206e6f6e657869737460008201527f656e7420746f6b656e0000000000000000000000000000000000000000000000602082015250565b7f54686520636f6e74726163742069732070617573656420617420746865206d6f60008201527f6d656e7400000000000000000000000000000000000000000000000000000000602082015250565b7f4552433732313a206d696e7420746f20746865207a65726f2061646472657373600082015250565b7f4552433732313a20617070726f76656420717565727920666f72206e6f6e657860008201527f697374656e7420746f6b656e0000000000000000000000000000000000000000602082015250565b7f57726f6e6720616d6f756e74206f662045746800000000000000000000000000600082015250565b7f4f776e61626c653a2063616c6c6572206973206e6f7420746865206f776e6572600082015250565b7f4552433732314d657461646174613a2055524920717565727920666f72206e6f60008201527f6e6578697374656e7420746f6b656e0000000000000000000000000000000000602082015250565b7f4552433732313a20617070726f76616c20746f2063757272656e74206f776e6560008201527f7200000000000000000000000000000000000000000000000000000000000000602082015250565b50565b7f4552433732313a207472616e736665722063616c6c6572206973206e6f74206f60008201527f776e6572206e6f7220617070726f766564000000000000000000000000000000602082015250565b7f455243373231456e756d657261626c653a20676c6f62616c20696e646578206f60008201527f7574206f6620626f756e64730000000000000000000000000000000000000000602082015250565b7f55736572206e6f742077686974656c6973746564000000000000000000000000600082015250565b614071816137ca565b811461407c57600080fd5b50565b614088816137dc565b811461409357600080fd5b50565b61409f816137e8565b81146140aa57600080fd5b50565b6140b681613834565b81146140c157600080fd5b5056fea2646970667358221220b23df944d2536b7f5df167f97f735f754cbbc615b733c851ef71ca41b8cb4d2764736f6c63430008040033",
  "linkReferences": {},
  "deployedLinkReferences": {}
}